{
  "_format": "hh-sol-artifact-1",
  "contractName": "Agreement",
  "sourceName": "contracts/agreement/Agreement.sol",
  "abi": [
    {
      "anonymous": false,
      "inputs": [
        {
          "indexed": false,
          "internalType": "address",
          "name": "account",
          "type": "address"
        }
      ],
      "name": "AdminAdded",
      "type": "event"
    },
    {
      "anonymous": false,
      "inputs": [
        {
          "indexed": false,
          "internalType": "address",
          "name": "account",
          "type": "address"
        }
      ],
      "name": "AdminRemoved",
      "type": "event"
    },
    {
      "anonymous": false,
      "inputs": [
        {
          "indexed": false,
          "internalType": "address",
          "name": "account",
          "type": "address"
        },
        {
          "indexed": false,
          "internalType": "bool",
          "name": "isAdmin",
          "type": "bool"
        }
      ],
      "name": "AdminStatusChanged",
      "type": "event"
    },
    {
      "anonymous": false,
      "inputs": [
        {
          "indexed": true,
          "internalType": "address",
          "name": "owner",
          "type": "address"
        },
        {
          "indexed": true,
          "internalType": "address",
          "name": "spender",
          "type": "address"
        },
        {
          "indexed": false,
          "internalType": "uint256",
          "name": "value",
          "type": "uint256"
        }
      ],
      "name": "Approval",
      "type": "event"
    },
    {
      "anonymous": false,
      "inputs": [
        {
          "indexed": false,
          "internalType": "bytes32",
          "name": "data",
          "type": "bytes32"
        }
      ],
      "name": "AssociatedDataChanged",
      "type": "event"
    },
    {
      "anonymous": false,
      "inputs": [
        {
          "indexed": false,
          "internalType": "bytes32",
          "name": "dataHash",
          "type": "bytes32"
        }
      ],
      "name": "DataHashChanged",
      "type": "event"
    },
    {
      "anonymous": false,
      "inputs": [
        {
          "indexed": false,
          "internalType": "string",
          "name": "dataUrl",
          "type": "string"
        }
      ],
      "name": "DataUrlChanged",
      "type": "event"
    },
    {
      "anonymous": false,
      "inputs": [
        {
          "indexed": false,
          "internalType": "address",
          "name": "account",
          "type": "address"
        }
      ],
      "name": "ManagementPlaformChanged",
      "type": "event"
    },
    {
      "anonymous": false,
      "inputs": [
        {
          "indexed": true,
          "internalType": "address",
          "name": "from",
          "type": "address"
        },
        {
          "indexed": true,
          "internalType": "address",
          "name": "to",
          "type": "address"
        },
        {
          "indexed": false,
          "internalType": "uint256",
          "name": "value",
          "type": "uint256"
        }
      ],
      "name": "Transfer",
      "type": "event"
    },
    {
      "anonymous": false,
      "inputs": [
        {
          "indexed": false,
          "internalType": "address",
          "name": "account",
          "type": "address"
        },
        {
          "indexed": false,
          "internalType": "uint256",
          "name": "value",
          "type": "uint256"
        }
      ],
      "name": "Withdraw",
      "type": "event"
    },
    {
      "inputs": [],
      "name": "afterUpgrade",
      "outputs": [],
      "stateMutability": "nonpayable",
      "type": "function"
    },
    {
      "inputs": [
        {
          "internalType": "bytes32",
          "name": "_dataHash",
          "type": "bytes32"
        }
      ],
      "name": "init",
      "outputs": [],
      "stateMutability": "nonpayable",
      "type": "function"
    },
    {
      "inputs": [],
      "name": "version",
      "outputs": [
        {
          "internalType": "uint256",
          "name": "",
          "type": "uint256"
        }
      ],
      "stateMutability": "pure",
      "type": "function"
    }
  ],
  "bytecode": "0x608060405234801561001057600080fd5b506105aa806100206000396000f3fe608060405234801561001057600080fd5b50600436106100415760003560e01c80633b6631951461004657806354fd4d5014610062578063ce18432514610080575b600080fd5b610060600480360381019061005b9190610335565b61008a565b005b61006a610315565b60405161007791906104bb565b60405180910390f35b61008861031e565b005b7fc63c72d6995119c079ef24c02679d49838905c8e81df9e632011b914e6f592f63360016040516100bc929190610413565b60405180910390a17f92b6468ea6b749c999a2289d7bdecb45197e9eb5449a21bd7db1fe74f2167d4c336040516100f391906103f8565b60405180910390a17f5f0490fea8b84f74eb1293c2fa5d742bc1ef041a8e1fc1d3b25a1ee98ab6a25e8160405161012a9190610465565b60405180910390a13373ffffffffffffffffffffffffffffffffffffffff163373ffffffffffffffffffffffffffffffffffffffff167fddf252ad1be2c89b69c2b068fc378daa952ba7f163c4a11628f55a4df523b3ef60646040516101909190610480565b60405180910390a33373ffffffffffffffffffffffffffffffffffffffff163373ffffffffffffffffffffffffffffffffffffffff167f8c5be1e5ebec7d5bd14f71427d1e84f3dd0314c0f7b2291e5b200ac8c7c3b92560646040516101f69190610480565b60405180910390a37f44d6d25963f097ad14f29f06854a01f575648a1ef82f30e562ccd3889717e3393360405161022d91906103f8565b60405180910390a17fa3b62bc36326052d97ea62d63c3d60308ed4c3ea8ac079dd8499f1e9c4f80c0f3360405161026491906103f8565b60405180910390a17f884edad9ce6fa2440d8a54cc123490eb96d2768479d49ff9c7366125a942436433600a60405161029e92919061043c565b60405180910390a17f092840667fc51750764189c9b87f050e4ab42590c35549caf908e2075960512a816040516102d59190610465565b60405180910390a17f171a7b485643ed99552ace9bda7a08d29e91512c9a33d5452b3a600552f49afe60405161030a9061049b565b60405180910390a150565b60006009905090565b565b60008135905061032f8161055d565b92915050565b60006020828403121561034757600080fd5b600061035584828501610320565b91505092915050565b610367816104e7565b82525050565b610376816104f9565b82525050565b61038581610505565b82525050565b61039481610539565b82525050565b6103a38161054b565b82525050565b60006103b66006836104d6565b91507f737472696e6700000000000000000000000000000000000000000000000000006000830152602082019050919050565b6103f28161052f565b82525050565b600060208201905061040d600083018461035e565b92915050565b6000604082019050610428600083018561035e565b610435602083018461036d565b9392505050565b6000604082019050610451600083018561035e565b61045e602083018461039a565b9392505050565b600060208201905061047a600083018461037c565b92915050565b6000602082019050610495600083018461038b565b92915050565b600060208201905081810360008301526104b4816103a9565b9050919050565b60006020820190506104d060008301846103e9565b92915050565b600082825260208201905092915050565b60006104f28261050f565b9050919050565b60008115159050919050565b6000819050919050565b600073ffffffffffffffffffffffffffffffffffffffff82169050919050565b6000819050919050565b60006105448261052f565b9050919050565b60006105568261052f565b9050919050565b61056681610505565b811461057157600080fd5b5056fea26469706673582212205ed377407906b72d84a940bde10bc80bb71bf4338604dafbcb1b45b2a6089b1864736f6c63430008000033",
  "linkReferences": {},
  "deployedLinkReferences": {}
}